:020000040800F2
:10000000880600208901000891010008930100087A
:100010009501000897010008990100080000000000
:100020000000000000000000000000009B0100082C
:100030009D010008000000009F010008A1010008C8
:10004000A3010008A3010008A3010008A301000800
:10005000A3010008A3010008A3010008A3010008F0
:10006000A3010008A3010008A3010008A3010008E0
:10007000A3010008A3010008A3010008A3010008D0
:10008000A3010008A3010008A3010008A3010008C0
:10009000A3010008A3010008A3010008A3010008B0
:1000A000A3010008A3010008A3010008A3010008A0
:1000B000A3010008A3010008A3010008A301000890
:1000C000A3010008A3010008A3010008A301000880
:1000D000A3010008A3010008A3010008A301000870
:1000E000A3010008A3010008A301000800F002F822
:1000F00000F03AF80AA090E8000C82448344AAF188
:100100000107DA4501D100F02FF8AFF2090EBAE885
:100110000F0013F0010F18BFFB1A43F0010318473B
:100120003C0500005C050000103A24BF78C878C187
:10013000FAD8520724BF30C830C144BF04680C60ED
:10014000704700000023002400250026103A28BF35
:1001500078C1FBD8520728BF30C148BF0B60704739
:100160001FB51FBD10B510BD00F031F81146FFF7E7
:10017000F7FF00F06BFA00F04FF803B4FFF7F2FF5F
:1001800003BC00F057F800000948804709480047C1
:10019000FEE7FEE7FEE7FEE7FEE7FEE7FEE7FEE737
:1001A000FEE7FEE704480549054A064B7047000094
:1001B00089040008ED00000888000020880600205F
:1001C00088020020880200207047704770477546FB
:1001D00000F02CF8AE4605006946534620F00700B3
:1001E000854618B020B5FFF7DDFFBDE820404FF091
:1001F00000064FF000074FF000084FF0000B21F011
:100200000701AC46ACE8C009ACE8C009ACE8C009DD
:10021000ACE8C0098D46704710B50446AFF30080C6
:100220002046BDE81040FFF7A8BF00000048704717
:100230002800002001491820ABBEFEE7260002007E
:100240007047002109E0002201E0531C9AB242F6F7
:10025000FF239A42F9DB4B1C99B28142F3DB7047D2
:100260002DE9F0410246002500260020002300244D
:10027000002791F803C00CF00F0591F803C00CF0B3
:10028000100CBCF1000F03D091F802C04CEA050538
:1002900091F800C0BCF1000F31D0146800202BE0B1
:1002A0004FF0010C0CFA00F3B1F800C00CEA0306A1
:1002B0009E4220D183004FF00F0C0CFA03F7BC4391
:1002C00005FA03FC4CEA040491F803C0BCF1280FC2
:1002D00006D14FF0010C0CFA00FCC2F814C00AE081
:1002E00091F803C0BCF1480F05D14FF0010C0CFA96
:1002F00000FCC2F810C0401C0828D1D31460B1F82B
:1003000000C0BCF1FF0F34DD546800202EE000F186
:10031000080C4FF0010808FA0CF3B1F800C00CEA21
:1003200003069E4221D183004FF00F0C0CFA03F715
:10033000BC4305FA03FC4CEA040491F803C0BCF189
:10034000280F05D100F1080C08FA0CF8C2F8148047
:1003500091F803C0BCF1480F07D100F1080C4FF031
:10036000010808FA0CF8C2F81080401C0828CED307
:100370005460BDE8F0814161704701617047000041
:1003800029B1064A92690243044B9A6104E0034A88
:1003900092698243014B9A6170470000001002404D
:1003A00010B500F001F810BD0CB5002001900090D0
:1003B0003348006840F480303149086000BF30485D
:1003C000006800F4003000900198401C01900098F3
:1003D00018B90198B0F5A06FF1D12948006800F470
:1003E000003010B10120009001E000200090009842
:1003F000012843D12348006840F0100021490860DB
:100400000846006820F0030008600846006840F0D5
:10041000020008601A484068194948600846406868
:1004200048600846406840F480604860084640687C
:1004300020F47C1048600846406840F4E8104860AA
:100440000846006840F08070086000BF0C480068F3
:1004500000F000700028F9D00948406820F003003F
:10046000074948600846406840F00200486000BF05
:100470000348406800F00C000828F9D10CBD0000CA
:10048000001002400020024010B51348006840F000
:1004900001001149086008464068104908400E49AB
:1004A0004860084600680E4908400B490860084645
:1004B000006820F4802008600846406820F4FE00B0
:1004C00048604FF41F008860FFF76AFF4FF000603C
:1004D0000449086010BD0000001002400000FFF851
:1004E000FFFFF6FE08ED00E070B5002468E000258F
:1004F00062E04FF400413548FFF73DFF0A2094FBCE
:10050000F0F100FB1140324951F8200031490860F8
:100510000A20FFF796FE4FF400412C48FFF72DFF0D
:100520004FF480412948FFF726FF0A2094FBF0F0A2
:100530000A2190FBF1F201FB1200254951F820003D
:10054000244908600A20FFF77CFE4FF480411F48D1
:10055000FFF713FF4FF400511C48FFF70CFF642016
:1005600094FBF0F00A2190FBF1F201FB1200184914
:1005700051F82000174908600A20FFF762FE4FF487
:1005800000511248FFF7F9FE4FF480510F48FFF772
:10059000F2FE4FF47A7094FBF0F00D4951F8200010
:1005A0000C4908600A20FFF74CFE4FF480510748C1
:1005B000FFF7E3FE681C85B2142D9ADB601C84B241
:1005C00042F21070844292DB70BD0000000C0140CA
:1005D000000000200C08014008B501210420FFF7AD
:1005E000CFFE01210846FFF7CBFE10208DF8030057
:1005F000FF20ADF8000003208DF802006946044892
:10060000FFF72EFEFF2002490C31086008BD0000F4
:100610000008014008B501210820FFF7B1FE1020B5
:100620008DF803004FF47040ADF8000003208DF802
:10063000020069460448FFF713FE4FF6FF700249B7
:100640000C31086008BD0000000C0140FFF7C4FF3A
:10065000FFF7E0FF01E0FFF747FFFCE77C0600083B
:10066000000000202800000028010008A40600085F
:10067000280000206006000044010008C0000000BF
:10068000F9000000A4000000B00000009900000084
:100690009200000082000000F800000080000000CE
:0406A00090000000C6
:04000005080000ED02
:00000001FF
