:020000040800F2
:10000000880600208901000891010008930100087A
:100010009501000897010008990100080000000000
:100020000000000000000000000000009B0100082C
:100030009D010008000000009F010008A1010008C8
:10004000A3010008A3010008A3010008A301000800
:10005000A3010008A3010008A3010008A3010008F0
:10006000A3010008A3010008A3010008A3010008E0
:10007000A3010008A3010008A3010008A3010008D0
:10008000A3010008A3010008A3010008A3010008C0
:10009000A3010008A3010008A3010008A3010008B0
:1000A000A3010008A3010008A3010008A3010008A0
:1000B000A3010008A3010008A3010008A301000890
:1000C000A3010008A3010008A3010008A301000880
:1000D000A3010008A3010008A3010008A301000870
:1000E000A3010008A3010008A301000800F002F822
:1000F00000F03AF80AA090E8000C82448344AAF188
:100100000107DA4501D100F02FF8AFF2090EBAE885
:100110000F0013F0010F18BFFB1A43F0010318473B
:100120000005000020050000103A24BF78C878C1FF
:10013000FAD8520724BF30C830C144BF04680C60ED
:10014000704700000023002400250026103A28BF35
:1001500078C1FBD8520728BF30C148BF0B60704739
:100160001FB51FBD10B510BD00F031F81146FFF7E7
:10017000F7FF00F04DFA00F04FF803B4FFF7F2FF7D
:1001800003BC00F057F800000948804709480047C1
:10019000FEE7FEE7FEE7FEE7FEE7FEE7FEE7FEE737
:1001A000FEE7FEE704480549054A064B7047000094
:1001B0004D040008ED00000888000020880600209B
:1001C00088020020880200207047704770477546FB
:1001D00000F02CF8AE4605006946534620F00700B3
:1001E000854618B020B5FFF7DDFFBDE820404FF091
:1001F00000064FF000074FF000084FF0000B21F011
:100200000701AC46ACE8C009ACE8C009ACE8C009DD
:10021000ACE8C0098D46704710B50446AFF30080C6
:100220002046BDE81040FFF7A8BF00000048704717
:100230002800002001491820ABBEFEE7260002007E
:100240007047002108E0002201E0531C9AB2B2F589
:10025000167FFADD4B1C99B28142F4DB70472DE921
:10026000F04102460025002600200023002400273C
:1002700091F803C00CF00F0591F803C00CF0100CBE
:10028000BCF1000F03D091F802C04CEA050591F8CB
:1002900000C0BCF1000F31D0146800202BE04FF0FB
:1002A000010C0CFA00F3B1F800C00CEA03069E4200
:1002B00020D183004FF00F0C0CFA03F7BC4305FA72
:1002C00003FC4CEA040491F803C0BCF1280F06D1EA
:1002D0004FF0010C0CFA00FCC2F814C00AE091F8CF
:1002E00003C0BCF1480F05D14FF0010C0CFA00FC23
:1002F000C2F810C0401C0828D1D31460B1F800C067
:10030000BCF1FF0F34DD546800202EE000F1080C32
:100310004FF0010808FA0CF3B1F800C00CEA03062C
:100320009E4221D183004FF00F0C0CFA03F7BC431F
:1003300005FA03FC4CEA040491F803C0BCF1280F51
:1003400005D100F1080C08FA0CF8C2F8148091F8F5
:1003500003C0BCF1480F07D100F1080C4FF00108B1
:1003600008FA0CF8C2F81080401C0828CED354605C
:10037000BDE8F081416170470161704729B1064ACB
:1003800092690243044B9A6104E0034A92698243F2
:10039000014B9A61704700000010024010B500F058
:1003A00001F810BD0CB500200190009025480068B0
:1003B00040F480302349086000BF2248006800F400
:1003C000003000900198401C0190009818B90198E5
:1003D000B0F5A06FF1D11B48006800F4003010B1F7
:1003E0000120009001E0002000900098012828D111
:1003F0001548006840F0100013490860084600687E
:1004000020F0030008600846006808600D48406856
:100410000C494860084640684860084640684860A3
:100420000846406820F0030048600846406840F0F5
:100430000100486000BF0348406800F00C00042839
:10044000F9D10CBD001002400020024010B5134845
:10045000006840F0010011490860084640681049F2
:1004600008400E494860084600680E4908400B499C
:1004700008600846006820F480200860084640684C
:1004800020F4FE0048604FF41F008860FFF786FFED
:100490004FF000600449086010BD000000100240E9
:1004A0000000FFF8FFFFF6FE08ED00E070B5002445
:1004B00068E0002562E04FF400413548FFF75AFF3D
:1004C0000A2094FBF0F100FB1140324951F8200062
:1004D000314908600A20FFF7B4FE4FF400412C4870
:1004E000FFF74AFF4FF480412948FFF743FF0A20F6
:1004F00094FBF0F00A2190FBF1F201FB1200254978
:1005000051F82000244908600A20FFF79AFE4FF4B2
:1005100080411F48FFF730FF4FF400511C48FFF7A0
:1005200029FF642094FBF0F00A2190FBF1F201FB1B
:100530001200184951F82000174908600A20FFF7F7
:1005400080FE4FF400511248FFF716FF4FF4805120
:100550000F48FFF70FFF4FF47A7094FBF0F00D494E
:1005600051F820000C4908600A20FFF76AFE4FF49A
:1005700080510748FFF700FF681C85B2142D9ADBF5
:10058000601C84B242F21070844292DB70BD0000A5
:10059000000C0140000000200C08014008B50121BA
:1005A0000420FFF7EBFE01210846FFF7E7FE1020CD
:1005B0008DF80300FF20ADF8000003208DF8020045
:1005C00069460448FFF74BFEFF2002490C310860E2
:1005D00008BD00000008014008B501210820FFF710
:1005E000CDFE10208DF803004FF47040ADF80000F0
:1005F00003208DF8020069460448FFF730FE4FF6ED
:10060000FF7002490C31086008BD0000000C014079
:10061000FFF7C4FFFFF7E0FF01E0FFF747FFFCE74C
:100620004006000800000020280000002801000803
:100630006806000828000020600600004401000849
:10064000C0000000F9000000A4000000B00000009D
:10065000990000009200000082000000F8000000F5
:08066000800000009000000082
:04000005080000ED02
:00000001FF
