:020000040800F2
:10000000A006002089010008910100089301000862
:100010009501000897010008990100080000000000
:100020000000000000000000000000009B0100082C
:100030009D010008000000009F010008A1010008C8
:10004000A3010008A3010008A3010008A301000800
:10005000A3010008A3010008A3010008A3010008F0
:10006000A3010008A3010008A3010008A3010008E0
:10007000A3010008A3010008A3010008A3010008D0
:10008000A3010008A3010008A3010008A3010008C0
:10009000A3010008A3010008A3010008A3010008B0
:1000A000A3010008A3010008A3010008A3010008A0
:1000B000A3010008A3010008A3010008A301000890
:1000C000A3010008A3010008A3010008A301000880
:1000D000A3010008A3010008A3010008A301000870
:1000E000A3010008A3010008A301000800F002F822
:1000F00000F03AF80AA090E8000C82448344AAF188
:100100000107DA4501D100F02FF8AFF2090EBAE885
:100110000F0013F0010F18BFFB1A43F0010318473B
:100120007C0500009C050000103A24BF78C878C107
:10013000FAD8520724BF30C830C144BF04680C60ED
:10014000704700000023002400250026103A28BF35
:1001500078C1FBD8520728BF30C148BF0B60704739
:100160001FB51FBD10B510BD00F031F81146FFF7E7
:10017000F7FF00F087FA00F04FF803B4FFF7F2FF43
:1001800003BC00F057F800000948804709480047C1
:10019000FEE7FEE7FEE7FEE7FEE7FEE7FEE7FEE737
:1001A000FEE7FEE704480549054A064B7047000094
:1001B0009D050008ED000008A0000020A00600201A
:1001C000A0020020A00200207047704770477546CB
:1001D00000F02CF8AE4605006946534620F00700B3
:1001E000854618B020B5FFF7DDFFBDE820404FF091
:1001F00000064FF000074FF000084FF0000B21F011
:100200000701AC46ACE8C009ACE8C009ACE8C009DD
:10021000ACE8C0098D46704710B50446AFF30080C6
:100220002046BDE81040FFF7A8BF00000048704717
:100230004000002001491820ABBEFEE72600020066
:1002400070470CB50021019111E00021009104E0FC
:10025000BDF80010491C89B20091BDF80010B1F53D
:10026000167FF5DDBDF80410491C89B20191BDF877
:1002700004108142E9DB0CBD2DE9F0410246002566
:100280000026002000230024002791F803C00CF072
:100290000F0591F803C00CF0100CBCF1000F03D057
:1002A00091F802C04CEA050591F800C0BCF1000FBE
:1002B00031D0146800202BE04FF0010C0CFA00F351
:1002C000B1F800C00CEA03069E4220D183004FF033
:1002D0000F0C0CFA03F7BC4305FA03FC4CEA0404C8
:1002E00091F803C0BCF1280F06D14FF0010C0CFAB5
:1002F00000FCC2F814C00AE091F803C0BCF1480F3A
:1003000005D14FF0010C0CFA00FCC2F810C0401CE3
:100310000828D1D31460B1F800C0BCF1FF0F34DD60
:10032000546800202EE000F1080C4FF0010808FA94
:100330000CF3B1F800C00CEA03069E4221D1830001
:100340004FF00F0C0CFA03F7BC4305FA03FC4CEA20
:10035000040491F803C0BCF1280F05D100F1080C8A
:1003600008FA0CF8C2F8148091F803C0BCF1480FE9
:1003700007D100F1080C4FF0010808FA0CF8C2F898
:100380001080401C0828CED35460BDE8F0810000E6
:10039000F0B50A46002300240021002500F00046A5
:1003A000B6F1004F02D11D4EF16901E01B4E71689C
:1003B000C0F3034583B200F44016B6F5401F08D1E0
:1003C00021F07061154E766826F07066134F7E60DE
:1003D00012E000F48016B6F5801F06D1032606FA57
:1003E00005F4A14341F0706106E0460D360103FAC1
:1003F00006F6B14341F0706122B1460D360103FAB1
:1004000006F6314300F00046B6F1004F02D1034E2C
:10041000F16101E0014E7160F0BD0000000001409B
:10042000416170470161704729B1064A92690243F0
:10043000044B9A6104E0034A92698243014B9A613A
:10044000704700000010024010B500F001F810BD28
:100450000CB50020019000902548006840F48030E1
:100460002349086000BF2248006800F40030009073
:100470000198401C0190009818B90198B0F5A06F40
:10048000F1D11B48006800F4003010B10120009049
:1004900001E0002000900098012828D1154800684C
:1004A00040F01000134908600846006820F003007F
:1004B00008600846006808600D4840680C494860BC
:1004C00008464068486008464068486008464068FA
:1004D00020F0030048600846406840F00100486092
:1004E00000BF0348406800F00C000428F9D10CBD9F
:1004F000001002400020024010B500210020002220
:10050000214B5B6803F00C0121B1042906D00829B6
:1005100028D107E01D4B1E4C236027E01B4B1C4CD1
:10052000236023E0184B5B6803F47010164B5B6884
:1005300003F48032022303EB904022B9154B43436E
:10054000134C23600DE0104B5B6803F4003323B1C0
:10055000104B43430E4C236003E00C4B43430C4CC5
:10056000236003E0094B0A4C236000BF00BF064B29
:100570005B68C3F30313084CE15C054B1B68CB407D
:10058000034C236010BD00000010024000127A00EE
:100590002C00002000093D003000002010B5134859
:1005A000006840F0010011490860084640681049A1
:1005B00008400E494860084600680E4908400B494B
:1005C00008600846006820F48020086008464068FB
:1005D00020F4FE0048604FF41F008860FFF734FFEE
:1005E0004FF000600449086010BD00000010024098
:1005F0000000FFF8FFFFF6FE08ED00E010B504462E
:1006000000200E49086014E0FF210D48FFF708FFA5
:100610004FF4FA70FFF715FEFF210948FFF702FFBC
:100620004FF4FA70FFF70DFE04480068401C0349C0
:10063000086002480068A042E6DB10BD0000002010
:10064000000C014008B501210820FFF7EDFE012153
:100650000846FFF7E9FE01210848FFF799FE102040
:100660008DF80300FF20ADF8000003208DF8020094
:1006700069460348FFF700FE08BD00000002300095
:10068000000C0140FFF78AFFFFF736FFFFF7DAFFA4
:1006900002E00520FFF7B2FFFBE70000BC06000800
:1006A000000000204000000028010008FC060008AF
:1006B0004000002060060000440100080000000027
:1006C0000000000000000000FE000000FD0000002F
:1006D000FB000000F7000000EF000000DF0000005A
:1006E000BF0000007F00000000127A000000000040
:0C06F000000000000102030406070809D6
:04000005080000ED02
:00000001FF
